:1000000019C03FC03EC016C33CC0BCC23AC05CC2AF
:10001000A7C237C036C035C034C088C232C031C074
:1000200030C02FC02EC02DC02CC02BC02AC029C06C
:1000300028C027C011241FBECFEFCDBFDFE3DEBF36
:100040008091400080934000811105C098ED21E02F
:1000500094BF209341008CBB1FE3A0E0BFE3EBEF14
:10006000FFE002C005900D92A230B107D9F72FE34F
:10007000A2E0BFE301C01D92A331B207E1F711D3A3
:100080005FC6BECF8091140883608093140880916E
:10009000150880FFFCCF089592E090931408809398
:1000A00018088091150886FFFCCF809115088C7088
:1000B00039F4809115088295817091E0892708951F
:1000C00080E0089588E78093170880911508807C68
:1000D000E1F38091150883FF06C08091150880FF29
:1000E000FCCF80E008958091150884FF0AC08091BC
:1000F00014088360809314088091150880FFFCCF5A
:10010000F0CF81E00895DEDF80E4C6CFDBDF80E062
:10011000C3CFCF93DF93C82FD62FF8DF80EB8D0F9F
:10012000BBDF8C2F82958F708061B6DF8C2F8E7035
:100130008160B2DFDF91CF91A5CF1F93CF93DF9383
:10014000142FD22FE6DFDFDFC0E0C11721F08D2FA3
:10015000A3DFCF5FFACFDF91CF911F9193CFCF93E2
:10016000C0E020E040E86C2F80E0E7DFCF5FC430E4
:10017000C1F7CF910895CF93C82FC8DF8C2F8CDFA4
:10018000CF9180CFBC018091480483FD3BC080911A
:10019000113F9091123F80930F3F9093103F80E466
:1001A00048ED51E02091113F3091123FE0910F3F17
:1001B000F091103F2E1B3F0B2617370720F0909130
:1001C000480493FD21C02091113F3091123FE091EE
:1001D0000F3FF091103F2E1B3F0B2137374110F39B
:1001E0009091440491609093440480930004209182
:1001F000113F3091123F28353B41C8F344BF509323
:100200004100D0CF80E0089581E008958F929F92C1
:10021000AF92BF92CF92DF92EF92FF920F931F9314
:10022000CF93DF93882EC62F7A01922E060FD0E04F
:10023000C22ED12C6C2F882D6CDF65DF1D2F56014F
:10024000AD0EB11C812F90E08A159B054CF417FD73
:1002500007C08E0D9F1DFC0180811EDF1F5FF2CF46
:1002600011DFD90DCF5F0C13E5CFDF91CF911F9137
:100270000F91FF90EF90DF90CF90BF90AF909F9045
:100280008F900895FF920F931F93CF93DF93182FB2
:10029000862F87FD8195C82F082E000CDD0B8A3034
:1002A00044F5103411F01C34D9F420E040E261E050
:1002B00084E643DF20E040E262E084E63EDFCC0FEC
:1002C000DD1FC951D0474881598102E028E161E032
:1002D000812F9CDFDF91CF911F910F91FF900895A7
:1002E00002E028E148E75FE861E08AE1810F8EDF04
:1002F000E6CF6AE0B8D4F82EE82FEE0FFF0BE951F5
:10030000F0474081518102E028E161E08AE1810FFC
:100310007DDF8F2D96EF8902C00DD11D1124CC0FEA
:10032000DD1FC951D04748815981D0CF0F931F930A
:10033000CF93DF93C82FD62F142F11DFEC2FF0E0CF
:10034000EE0FFF1FE952F0474081518102E020E1AA
:1003500061E08AE55BDF60E080E094DFC0E08091EF
:10036000480483FD12C08091113F9091123F809309
:100370000F3F9093103FCD0F1C1708F4C0E06C2F77
:1003800080E080DF8CE291E0FDDE8091113F909172
:10039000123F20910F3F3091103F821B930B813D04
:1003A0009740E8F28C2FDF91CF911F910F91089524
:1003B000CF93C62F6091083F65DF6091073F8C2F78
:1003C000CF9160CF80910006882379F08DE18093F2
:1003D000060681E08093080680910B0680FFFCCF23
:1003E0008091100690911106089589EF92E8089582
:1003F000A0E0B6E081E08C93E0EAF0E081818D7FBF
:10040000818312968C9112978F7C806512968C93C3
:1004100080E48083D7DFD6DF9C0150E040E064E2D7
:100420007AE687E190E02CD4C90108950F93CF9329
:10043000DF93DEDF853020E1920710F084E090E169
:1004400080382CE0920710F480E89CE0B0E0A0E057
:100450009C01AD0120583C4041095109A5E7B0E09D
:1004600059D424E833E040E050E02CD4422FD22F7E
:10047000C32F20EE63E08AE060DE4D2F5C2F453114
:10048000510510F044E150E0C42F20EA63E08AE017
:1004900054DE8091080484FF07C001E028E048EAA8
:1004A0005FE863E080E0B2DE8091080484FD07C06D
:1004B00001E028E04FED5FE863E080E0A7DE8C2FED
:1004C000DF91CF910F9108951F920F920FB60F9267
:1004D00011248F9381E0809353018091063F8F5FB9
:1004E0008C3368F48093063F8091003F811101C0F6
:1004F00088958F910F900FBE0F901F9018951092B6
:10050000063F8091073F8F5F8C3318F48093073F3D
:10051000EBCF1092073F8091083F8F5F883118F42E
:100520008093083FE1CF1092083FDECF1F920F92D9
:100530000FB60F9211248F939F9381E08093460A08
:100540008091113F9091123F01968093113F9093BB
:10055000123F9F918F910F900FBE0F901F90189593
:100560001F920F920FB60F9211248F9381E0809308
:100570000B0A82E0809347048F910F900FBE0F907B
:100580001F9018951F920F920FB60F9211248F9300
:100590009F938091490482FF0EC05A9A9091033F25
:1005A00080910C3F981708F03FC08091033F8F5F08
:1005B0008093033F88958091490483FF10C088E0B1
:1005C0008BB980915304887F809353041092000468
:1005D0001092053F1092023F81E08093013F80918D
:1005E000013F8823D1F080915204887F8093520488
:1005F000809144048E7F809344048091113F9091B8
:10060000123F80930F3F9093103F81E08093003F13
:10061000809150008E7F809350009F918F910F901A
:100620000FBE0F901F90189581E08093023F80933A
:10063000013FC1CF1F920F920FB60F9211248F93DB
:100640009F93EF93FF93E0E4F4E08289887F828BAD
:1006500084E08BB980E183B984818E7F848381E0DB
:100660008093003F8093013F8091113F9091123F12
:1006700080930F3F9093103F1092023FE0E5F0E02F
:1006800080818E7F808388ED9AE084BF9093000103
:10069000FF91EF919F918F910F900FBE0F901F9040
:1006A0001895CF93DF93CDB7DEB72597CDBFDEBFCB
:1006B00028ED93E024BF90936100E0E0F6E081E54F
:1006C00082838DE0858380E2838381E08083109242
:1006D00002028093030A3EEF3093260A3093270AE2
:1006E00039E03093000AE0E8FAE04DEF51E046A728
:1006F00057A742A753A730E83283118230E13083F5
:10070000789410920004909320049093400498E011
:100710009093520490935304909314049091140472
:10072000916090931404909144049D7F90934404AD
:1007300024BF80937C00809141018111FCCF80E82F
:100740008093400182E080934701809151018111A3
:10075000FCCF81E78093500181E080935201809328
:10076000450A80ED97E080934C0A90934D0A83E010
:100770008093400A80915000897F8460809350006C
:1007800022E3222E312C4090448D5090458D609074
:10079000468D7090478DFF24F394EE24E39480916E
:1007A000013F882309F446C023DE81389C4008F4C9
:1007B00041C01092013F1092033F8091113F9091F0
:1007C000123F20910F3F3091103F821B930B8C32D0
:1007D000914098F382E080932204809131048860F4
:1007E00080933104F09222048091300488608093D9
:1007F000300410921608F0921308F092150800EBDE
:100800001FE8F80181918F01B6DCFFE80F3C1F075C
:10081000C1F7A5DC80E028ED24BF80930001809122
:10082000023F882309F408C1813009F410C188EE21
:1008300093E0A8DC00910D3F10910E3F01151105CA
:1008400009F455C08091063F9091043F891709F43F
:100850004EC08093043F9801AEE7B0E04FD22091A4
:10086000093F30910A3F50E040E02CD2D22E20E0E8
:1008700042E060E08D2D61DC23E04D2D60E080E002
:100880005CDC0150110900930D3F10930E3F012BCA
:1008900011F565DC30E830930004F0920A0A1092FA
:1008A000010A8091090A8E7F8093090A2092260A04
:1008B0003092270A8BE08093000A8091480483FDE0
:1008C000FCCF1092000A9FE09093050A80914404A7
:1008D0008D7F8093440480910004882321F010923E
:1008E000053F10920004A2DD60E080E461DD8CE24F
:1008F00091E048DC8D83882309F4B1C080910B3FDF
:100900008111A4C193DD882309F4A0C149825A82D0
:100910006B827C8224DC97EDC92E9FE8D92EFE01E4
:1009200031965F014F01F601419151916F0102E053
:1009300020E161E0F50181915F0168DCFFEDCF16F8
:10094000FFE8DF0681F740910C3F440F20EF63E0A2
:100950008AE0F3DB10E08AEF90E014DC811103C041
:100960002D81111117C020E04FE760E080E0E5DB4A
:10097000F401E10FF11D17FDFA95808101E028E0F7
:100980004FEC5FE860E08C5F41DC1F5F21E01530D9
:100990000CF020E08091113F9091123F40910F3F69
:1009A0005091103F841B950B813D974008F453C034
:1009B0008091113F9091123F80930F3F9093103F91
:1009C000123009F4B8C00CF09AC0113009F045C0DB
:1009D0008091113F9091123F20910F3F3091103F35
:1009E000821B930B803D9740C0F58AEF90E0CADBF5
:1009F000811103C0FD81FF23E9F08091113F9091A7
:100A0000123F80930F3F9093103F8091053F8F5F7F
:100A10008093053F8091053F833010F01092053F91
:100A20008091053F813009F47EC008F479C082309E
:100A300009F47DC01D82CCCF81E89DDB8FEF9BDB6D
:100A400010920B3F60E080E4B3DCF0DCF0CE68E0B5
:100A50008CE4AEDCECCE21117ECFE092013F8091A0
:100A6000113F9091123F20910F3F3091103F821B18
:100A7000930B813A9F4008F492CE8091113F909160
:100A8000123F80930F3F9093103F81E874DB85E025
:100A900072DBE0920B3F80910D3F90910E3F892BCE
:100AA00009F07DCE5CDB8091080484FDD6C001E0B6
:100AB00028E04FED5FE863E080E0A8DB8091080468
:100AC00084FF0DC095DC8D309D4048F080910C3F37
:100AD000882329F08091520483608093520480918E
:100AE0005304816080935304109200061092003FDB
:100AF0008091500081608093500088954CCE1330D7
:100B000059F1143009F0A9CF44E061E083E00EDC34
:100B100080930C3F80910C3F880F80930C3F9DCFBA
:100B20001092000487CF20E82093000483CF30E6A2
:100B3000309300047FCF4EE165E081E0F7DBECE32A
:100B40008E9FC001112480930D3F90930E3F8093A0
:100B5000093F90930A3F81CF8EE5D82E10E0FFDA4F
:100B600001E028E04FEC5FE860E08D2D4FDB609105
:100B7000063F80E0123039F06091083F8CE482DB60
:100B80006091073F88E17EDB8091113F9091123F99
:100B900020910F3F3091103F821B930B8B3F9105AB
:100BA000D8F08091480483FD17C08091113F909147
:100BB000123F80930F3F9093103F113059F1123044
:100BC000B9F18091083F8F5F883108F58093083F25
:100BD0006091083F8CE456DB8091113F9091123F69
:100BE00020910F3F3091103F821B930B853C994021
:100BF00058F28091113F9091123F80930F3F909354
:100C0000103FD6941F5F133009F0A9CF26CF109262
:100C1000083FDECF8091073F8F5F8C3330F48093A5
:100C2000073F6091073F88E1D6CF1092073FF9CF89
:100C30008091063F8F5F8C3330F48093063F609144
:100C4000063F80E0C8CF1092063FF9CF81E893DAE3
:100C50008FEF91DA10920B3F02CF809144048160B4
:100C6000809344042BCF87FB082E062687FD8195B1
:100C700067FD619559D00EF4919507FC8195089513
:100C8000A1E21A2EAA1BBB1BFD010DC0AA1FBB1F90
:100C9000EE1FFF1FA217B307E407F50720F0A21B02
:100CA000B30BE40BF50B661F771F881F991F1A946F
:100CB00069F760957095809590959B01AC01BD0199
:100CC000CF010895052E97FB16F400940FD057FD21
:100CD00005D0D6DF07FC02D046F408C050954095F9
:100CE000309521953F4F4F4F5F4F089590958095D8
:100CF000709561957F4F8F4F9F4F0895A29FB001D0
:100D0000B39FC001A39F01D0B29F700D811D11241C
:100D1000911D0895F3DFA59F900DB49F900DA49FA2
:100D2000800D911D11240895991B79E004C0991F2D
:100D3000961708F0961B881F7A95C9F78095089535
:040D4000F894FFCF55
:100D44006446280AE08080FE46565646FE02E2A229
:100D5400A2E202FE1F0707FFF7E6F7C4FF808A8AB4
:100D64008A8680FFF0F81C8E8783838383030307BE
:100D74000E1CF8F00F1F3871E1C1C1C1C3C7C6E032
:100D840070381F0FFE4C8C0C0C1830A020B058ACDF
:100D94005CAC4CFE7F35323130190C04050C193231
:100DA400353A357F00808018D8E0F0F6F6F0E0D8C8
:100DB40018808000000101181B070F6F6F0F071BBD
:100DC400180101000000000000000000000000FE07
:100DD400FF0F0707070707070FFFFE000020E0E0EB
:100DE400E0E0E0E0E0E0F0FFFFF0E0E0E0E0E0E0A1
:100DF400F0FF7F0000FCFF0F0707070707070FFF3F
:100E0400FF0F0707070707070FFFFE00003FFFF06C
:100E1400E0E0E0E0E0E0F0FFFFF0E0E0E0E0E0E070
:100E2400F0FF7F0000000000000000000000000050
:100E3400000000000000000000FCFE000020E0E0D4
:100E4400E0E0E0E0E0E0E0E0E0E0E0E0E0E0E0E09E
:100E5400F0FF7F0000FC0F070707070707070FFFD6
:100E6400FF0F07070707070707070300003FF0E026
:100E7400E0E0E0E0E0E0F07F3F0000000000000080
:100E84000000000000FCFF0000000000000000FE65
:100E9400FF0F0707070707070FFFFE00003FFFF0DC
:100EA400E0E0E0E0E0E0F07F3F0000000000000050
:100EB40000FF7F000000000000000000000000FEB2
:100EC400FF0F070707070707070706000020E0E0F2
:100ED400E0E0E0E0E0E0E0FFFFF0E0E0E0E0E0E0C0
:100EE400E0E0600000FCFF0000000000000000C023
:100EF400C00000000000000000FFFE00003FFFF003
:100F0400E0E0E0E0E0E0F0FFFFF0E0E0E0E0E0E07F
:100F1400F0FF7F0000FCFF0F0707070707070FFE1E
:100F2400FC0000000000000000FFFE00003FFF0086
:100F3400000000000000007FFFF0E0E0E0E0E0E0FF
:100F4400F0FF7F000000000000000000000000002F
:100F54000000000000000000000000000020E0E0AD
:100F6400E0E0E0E0E0E0E0E0E0E0E0E0E0E0E0E07D
:100F7400E0E0600000FCFF0F07070707070707070B
:100F840007070707070707070FFFFE00003FFFF0EB
:100F9400E0E0E0E0E0E0E0E0E0E0E0E0E0E0E0E04D
:100FA400F0FF7F0000F090909090F060AE2002C8B7
:100FB40022000321007F40818FA1A6A81FA4D30093
:100FC400D5F0D922DA02DB208D14AF0003070F1FFE
:100FD4000F0703A88D888D688D488D183870E0FC44
:100FE4003870E0788F488F188FE88EB88E888E58C6
:070FF4008E288EF88DC88DD8
:020FFB000101F2
:00000001FF
