:1000000019C03FC03EC054C23CC01CC23AC039C037
:1000100038C037C036C035C034C05DC232C031C010
:1000200030C02FC02EC02DC02CC02BC02AC029C06C
:1000300028C027C011241FBECFEFCDBFDFE3DEBF36
:100040008091400080934000811105C098ED21E02F
:1000500094BF209341008CBB1FE3A0E0BFE3EFEE11
:10006000FFE002C005900D92A430B107D9F72FE34D
:10007000A4E0BFE301C01D92AE30B207E1F75AD24F
:1000800034C7BECF80911408836080931408809198
:10009000150880FFFCCF089592E090931408809398
:1000A00018088091150886FFFCCF809115088C7088
:1000B00039F4809115088295817091E0892708951F
:1000C00080E0089588E78093170880911508807C68
:1000D000E1F38091150883FF06C08091150880FF29
:1000E000FCCF80E008958091150884FF0AC08091BC
:1000F00014088360809314088091150880FFFCCF5A
:10010000F0CF81E00895DEDF80E4C6CFDBDF80E062
:10011000C3CFCF93DF93C82FD62FF8DF80EB8D0F9F
:10012000BBDF8C2F82958F708061B6DF8C2F8E7035
:100130008160B2DFDF91CF91A5CF8091920A87FFD6
:100140001EC02FB7F8948091800A8E7F8093800A1A
:100150008091920A90E08F7738ED34BF8093920AB5
:1001600080918E0A80FFFCCF8091800A816080930D
:10017000800A809151048F77809351042FBF089596
:100180001F93CF93DF93D42F122FC3DFBCDFC0E0C8
:10019000812F82DFCF5FDC13FBCFDF91CF911F91E7
:1001A00071CFCF93C0E020E040E86C2F80E0E8DF23
:1001B000CF5FC430C1F7CF9108958091080484FFC8
:1001C00006C0EFDF809144048160809344048091F5
:1001D0005304816080935304809150008160809328
:1001E0005000889508950F931F93CF93DF938A0152
:1001F00090DF89DFE801085F1F4F89914DDFC0174D
:10020000D107D9F7DF91CF911F910F913BCF1F936A
:10021000CF93DF93282FD62FC42F18E0180F46E373
:100220005FE8CA3060F08C2F6AE0EBD5C92FE82F69
:10023000F0E0EE0FFF1FE25CF047408151816D2F2F
:10024000822FD1DFEC2FF0E0EE0FFF1FE25CF047D2
:10025000408151816D2F812FDF91CF911F91C3CFAD
:10026000CF93DF932091073F3091083F820F931F78
:10027000803127E29207D8F48093073F9093083F9C
:10028000C091073FD091083FC436D10598F446E3AA
:100290005FE860E080E7A7DF46E35FE860E088E7CB
:1002A000A2DF4C2F61E080E7DF91CF91B0CF8FE0EC
:1002B00097E2E2CFCE0164E670E0AFD5D62F462FAD
:1002C00060E080E7A4DF4C2F84E6D89F401911241A
:1002D000E9CF92E0811111C09093460490914004BF
:1002E00091FD0AC09FB7F89481110AC08091510412
:1002F000877F809351049FBF20CF90934504EECF1A
:10030000809151048860F5CF80910006882379F0B0
:100310008DE18093060681E08093080680910B06AC
:1003200080FFFCCF8091100690911106089589EF0F
:1003300092E80895CF93DF938091A1008D7F809301
:10034000A100809102068F7C80658093020680E484
:100350008093A000D9DFD8DF9C0150E040E064E248
:100360007AE687E190E06DD54427552720583C4038
:1003700041095109A3E6B0E0A2D524E833E040E00A
:1003800050E081D5C1E0D0E0121644F4C22F220F14
:10039000DD0BC436D10514F0C3E6D0E0C093043FB2
:1003A000C5300CF40ADF8C2FDF91CF910895209196
:1003B000033F2223A9F14FB7F89420918E0A2370AE
:1003C0002330D9F729E030E02093AC0A3093AD0A0E
:1003D0002091920A27FD2BC02091800A2E7F209326
:1003E000800A2091920A206830E058ED54BF209393
:1003F000920A20918E0A20FFFCCF2091800A216072
:100400002093800A209151042F77209351044FBFED
:1004100022E02093410420915104277F209351042E
:10042000B0E0A0E00197A109B10928F486CE21E04F
:100430002093840AE7CFE1EEF4E03197F1F700C0B2
:100440000000F0CF1F920F920FB60F9211248F93DE
:100450009F938091490483FF05C088ED91E084BF9C
:10046000909341008091490482FF1BC084E08BB9C6
:100470008091053F8F5F8093053F8091053F8430D9
:1004800080F080915204887F8093520480E48093AE
:1004900000041092053F8091033F91E089278093EB
:1004A000033F9F918F910F900FBE0F901F90189553
:1004B0001F920F920FB60F9211248F939F9388ED86
:1004C00091E084BF909341009F918F910F900FBE58
:1004D0000F901F9018951F920F920FB60F92112434
:1004E0005F936F937F938F939F93AF93BF9381E0BD
:1004F0008093460A80910C3F90910D3F0196809326
:100500000C3F90930D3F80910C3F90910D3F64E61E
:1005100070E083D4892B11F41092053FBF91AF9105
:100520009F918F917F916F915F910F900FBE0F9070
:100530001F901895CF93DF93CDB7DEB7A297CDBFAD
:10054000DEBF83E098ED94BF80936100E0E0F6E0C9
:1005500091E592839DE0958390E2938391E090836F
:10056000109202029093030A2EEF2093260A209302
:10057000270A29E02093000AE0E8FAE02DEF31E0B5
:1005800026A737A722A733A720E82283118220E1DC
:100590002083789410920004809320048093400478
:1005A00028E02093530420935204209314042091B4
:1005B00014042160209314049093450A20ED37E041
:1005C00020934C0A30934D0A8093400A789480918E
:1005D0005000897F84608093500010E88091480427
:1005E00083FF06C180910C3F90910D3F843F914065
:1005F00008F4FEC082E08093220480913104886078
:100600008093310481E080932204909130049860BB
:100610009093300410921608809313088093150865
:1006200002E51FE871E7E72E7FE8F72EF801D19089
:100630008F016CDD8D2D30DD25DDE016F106B1F783
:100640008091080484FD06C04FED5FE860E084E01F
:10065000CADDB3DD9E01295F3F4F29873A8780912C
:10066000023F882309F470C09CDD49E95FE861E03E
:1006700088E2B9DD41E95FE861E080E3B4DD49E8A3
:100680005FE861E088E3AFDD41E95FE861E080E4D5
:10069000AADD49E95FE861E088E4A5DD4091003F1B
:1006A00062E084E3B4DD4FEC5FE863E080E09BDD73
:1006B00049E95FE863E088E096DD41E95FE863E0EF
:1006C00080E191DD41E95FE863E088E18CDD41E8AC
:1006D0005FE863E080E287DD8091063F81112AC0F8
:1006E00049E75FE860E08CE57EDD41E75FE860E0D8
:1006F00084E679DD8EE790E068D3182F8FE790E0ED
:1007000064D3212F30E0322F2227820F932F911DA7
:10071000A7DD4FED5FE860E084E065DD0BDE482F8C
:1007200061E080E074DD81E08093063F1092073F36
:100730001092083F1092023F80910C3F90910D3F24
:1007400080930A3F90930B3F8091480483FDF0C152
:1007500020910C3F30910D3F20930A3F30930B3F87
:1007600080910C3F90910D3F821B930B883C91052B
:10077000B8F38091480483FFF3CFF090093F3FEF37
:100780003F8381E088870091033F0BDD4FED5FE8F9
:1007900060E084E028DDCEDD482F61E080E037DDD9
:1007A00090E080E05DDD10E02FEF41E0612F82E11D
:1007B000E7DC2FEF41E0612F8EE6E2DC1F5F1430B3
:1007C00099F719821A821B821C821D821E8210E0F8
:1007D0008091013F082E000C990B18171906DCF4C4
:1007E00062E0610F47ED5FE884E7FDDC1F5FF0CF5B
:1007F00080910C3F90910D3F813A9F4008F4EECEDE
:1008000060E08EE790E0E9D260E08FE790E0E5D22B
:1008100010930004E3CE84EB8F198C8B81E00827C2
:100820000F87BB24B3948C8791E09B87E1E0EE8730
:10083000188A198A198E1A8E1A8A1B8A1D8A1E8A8C
:100840001F8A188E1D86C12C53E0D52E512C612C89
:10085000212C712C312CF12C14E106E6A12C809175
:10086000033FFF858F17F1F02091033F2F87809181
:10087000033F4FEC5FE8811102C047EC5FE863E0A3
:1008800082E0B1DC3FEF84E39CE031508040904057
:10089000E1F700C0000010920004809152048260D1
:1008A0008093520480910C3F90910D3F20910A3F1C
:1008B00030910B3F821B930B81389E43C0F0809197
:1008C0000C3F90910D3F80930A3F90930B3F20E0A7
:1008D0004AE5632D84E154DC339420E04AE5632D3E
:1008E00084E14EDC27DD482F61E080E090DCFC8570
:1008F000FF2379F080910C3F90910D3F68E572E005
:100900008CD2892B31F4BB2021F0BB24B39431105D
:10091000B12C80910C3F90910D3F28893989821B21
:10092000930B8497B0F0B11014C080910C3F90915C
:100930000D3F888B998B20E048E060E0802F20DC21
:100940000150043108F41BC14FEB5FE860E0802FD9
:100950004ADC061530F5802F90E0079668161906D8
:1009600009F0FCF4D1101DC0B1101BC047EB5FE8CB
:1009700060E0802F38DC84E690E019DD20E048E07C
:1009800060E0802FFDDB8AE090E06ADC8090013F30
:1009900091E098150CF0F7C0BB24B394E1E0EB872D
:1009A00006E680910C3F90910D3F2A893B89821B7E
:1009B000930B3C893817190608F00EC180910C3F43
:1009C00090910D3F8A8B9B8BAD8EE7E0F0E0EC0FB2
:1009D000FD1F9E85E90FF11D8081A80E84E090E047
:1009E000E6DC912C812CEA2D0A2C000CFF0BEE8FFB
:1009F000FF8F262D30E02B8F3C8F3A2D317038A39E
:100A00008D2D0D2C000C990B89A39AA3F401EF54A2
:100A1000F047E080FE01319680E091919E1101C087
:100A200081E029853A85E217F307B9F7811157C0AC
:100A30008E8D9F8D8E0D911D873691050CF0B6C061
:100A40008A31910514F431E03E87EC85EE2359F0AC
:100A500020910C3F30910D3F23703327232B19F445
:100A60005A2C5E0C1C86282D2170F22EF30C4D8C16
:100A70004E0C2B8D3C8D821793070CF099C0079676
:100A8000821793070CF494C089A19AA1F81619064D
:100A900009F08EC0E1E0F0E0EC0FFD1F9D85E90F4D
:100AA000F11DE0829F5F9D8747EB5FE86F2D842DEE
:100AB0009ADB84E690E07BDC20E048E06F2D842D1B
:100AC0005FDB82E090E0CCDBED85E43008F481C0B0
:100AD0008091003FF8E2F81BFC8B21E02B879FEF11
:100AE000891A990AE6E08E16910409F08FCFFD85E8
:100AF000F63008F471C08091003F843108F06CC07A
:100B00008F5F8093003F8091093F8B5F8093093F07
:100B100080915204887F8093520481E08093023F49
:100B200080910C3F90910D3F80930A3F90930B3F33
:100B300080910C3F90910D3F00910A3F10910B3F27
:100B4000801B910B893E934008F425C1F12C8AE269
:100B5000E82E80910C3F90910D3F801B910B68EE29
:100B600073E05BD1F616170608F015C147EE5FE893
:100B700063E08E2D38DB2FE0E20EF394EACFBB2446
:100B8000B39406E6E6CE83948092013F00E0082C01
:100B9000000C9908081519040CF0FECE62E0600FF5
:100BA00047ED5FE884E71FDB0F5FF4CF1E864DCF74
:100BB00020E048E06F2D842DE3DA8A2D8E0D38A1D8
:100BC00049EA5FE8332311F041EA5FE86F2D0BDB60
:100BD00086CF81E08B8783CF80910C3F90910D3F32
:100BE0002D893E89821B930B8937910560F1809195
:100BF0000C3F90910D3F8D8B9E8B20E041E06D2D41
:100C0000862DBEDA9B859923A9F034E0632E610E10
:100C100042E0D42E712C20EC30E0072C02C0359538
:100C200027950A94E2F741E06D2D862DA9DA739499
:100C30001B8609C0E6E0E71570F7DA94D7FEEACF25
:100C4000F1E0FB87712C80910C3F90910D3F2F8933
:100C5000388D821B930B89379105E0F03C8531116B
:100C600019C080910C3F90910D3F8F8B988F20E0A1
:100C700041E06C2D852D84DA96E0921508F098C03D
:100C8000C394E3E0EC150CF092C0CF2CF1E0FC87AC
:100C900026E0222E80910C3F90910D3F298D3A8DB8
:100CA000821B930BC397E8F080910C3F90910D3F0E
:100CB000898F9A8F143129F020E04AE563E084E1BE
:100CC0005FDA8091480483FD05C0173608F461C0DF
:100CD000115002C01431E1F747ED5FE863E0812F66
:100CE00082DA252D052C000C330B812F90E0821722
:100CF00093073CF40796821793071CF093E0C916FC
:100D000021F0E2E0EF1508F0AACD0AE047EB5FE83A
:100D100063E0812F68DA8CE390E049DB20E048E073
:100D200063E0812F2DDA8CE390E041DB015071F715
:100D30008091013F81508093013F87FFE9CE8EE78C
:100D400090E043D0F82E8FE790E03FD00091073F2E
:100D50001091083F2F2D30E0322F2227820F932F42
:100D6000911D8017910740F4612F8EE790E035D0F8
:100D7000602F8FE790E031D081E08093003F1092A8
:100D8000073F1092083F1092093F82E08093013F95
:100D9000BFCE1F5FA1CF80910C3F90910D3F801B74
:100DA000910B8137974108F45ACC07DA58CC212CA3
:100DB00023E030E0022C01C0220F0A94EAF741E060
:100DC0006C2D852DDDD9239465CF03D080819927A3
:100DD0000895FC01E050FC4E0895262FAF93BF9379
:100DE000E0E0F0E1328131FDFDCFDC01A050BC4EEE
:100DF0002C933DE934BF23E020830196BF91AF914E
:100E00000895991B79E004C0991F961708F0961B66
:100E1000881F7A95C9F780950895AA1BBB1B51E1DD
:100E200007C0AA1FBB1FA617B70710F0A61BB70B5A
:100E3000881F991F5A95A9F780959095BC01CD01FF
:100E40000895A1E21A2EAA1BBB1BFD010DC0AA1F0B
:100E5000BB1FEE1FFF1FA217B307E407F50720F023
:100E6000A21BB30BE40BF50B661F771F881F991F9E
:100E70001A9469F760957095809590959B01AC01E7
:100E8000BD01CF010895052E97FB16F400940FD0F5
:100E900057FD05D0D6DF07FC02D046F408C05095B8
:100EA0004095309521953F4F4F4F5F4F0895909556
:100EB0008095709561957F4F8F4F9F4F089509D012
:100EC000A59F900DB49F900DA49F800D911D11249E
:100ED0000895A29FB001B39FC001A39F01D0B29F0C
:0E0EE000700D811D1124911D0895F894FFCF0F
:100EEE0000064949291E00000036494949360000CE
:100EFE000001710905030000003C4A494930000019
:100F0E000027454545390000001814127F100000D7
:100F1E00002141454B31000000426151494600001D
:100F2E000000427F40000000003E5149453E000057
:100F3E00368F2E8F268F1E8F168F0E8F068FFE8E5C
:100F4E00F68EEE8EAE2002C822000321007F408175
:100F5E008FA1A6A81FA4D300D5F0D922DA02DB20D8
:100F6E008D14AF000000417F7F410000007F7F089D
:100F7E00087F7F00007F7F09090F0600001F3F607A
:100F8E00603F1F00007F7F4949414100007F7F4045
:100F9E004040400A3AEEF8F8EE3A2211F9EF3838AE
:100FAE00EFF911141C242C343C8922885104AA0117
:100FBE00523C7E331F1F337E3C00007F7F060C06A3
:100FCE007F0000266F49497B32E0F0F0FCFCF0F028
:100FDE00E0183C24242424243C0000414163361CA8
:010FEE0008FA
:040FEF0001020101F9
:00000001FF
