:1000000019C03FC03EC0E0C23CC08EC23AC02EC242
:1000100079C237C036C035C034C05AC232C031C0D0
:1000200030C02FC02EC02DC02CC02BC02AC029C06C
:1000300028C027C011241FBECFEFCDBFDFE3DEBF36
:100040008091400080934000811105C098ED21E02F
:1000500094BF209341008CBB1FE3A0E0BFE3E0ED21
:10006000FFE002C005900D92A230B107D9F72FE34F
:10007000A2E0BFE301C01D92A131B207E1F7D5D2E2
:1000800049C6BECF80911408836080931408809184
:10009000150880FFFCCF089592E090931408809398
:1000A00018088091150886FFFCCF809115088C7088
:1000B00039F4809115088295817091E0892708951F
:1000C00080E0089588E78093170880911508807C68
:1000D000E1F38091150883FF06C08091150880FF29
:1000E000FCCF80E008958091150884FF0AC08091BC
:1000F00014088360809314088091150880FFFCCF5A
:10010000F0CF81E00895DEDF80E4C6CFDBDF80E062
:10011000C3CFCF93DF93C82FD62FF8DF80EB8D0F9F
:10012000BBDF8C2F82958F708061B6DF8C2F8E7035
:100130008160B2DFDF91CF91A5CF1F93CF93DF9383
:10014000142FD22FE6DFDFDFC0E0C11721F08D2FA3
:10015000A3DFCF5FFACFDF91CF911F9193CFCF93E2
:10016000C0E020E040E86C2F80E0E7DFCF5FC430E4
:10017000C1F7CF910895CF93C82FC8DF8C2F8CDFA4
:10018000CF9180CFFC018091480483FD24C0209151
:100190000F3F3091103F20930D3F30930E3F98ED6D
:1001A00061E040910F3F5091103F421B530B4E179F
:1001B0005F0720F08091480483FD0FC040910F3FFE
:1001C0005091103F421B530B4137574150F394BF9E
:1001D00060934100E6CF80E0089581E00895AF92FA
:1001E000BF92CF92DF92EF92FF920F931F93CF9324
:1001F000DF93182FD62F6A01B22E060FC0E06D2FA5
:10020000812F87DF80DF7601EC0EF11CAB2CAC0E6A
:10021000C7FD07C0CF5FF70181917F013DDFCA11A4
:10022000F7CF30DFDF5FD013EACFDF91CF911F919F
:100230000F91FF90EF90DF90CF90BF90AF90089517
:100240000F93CF93DF93D82FC62FC7FDC195CA3028
:100250003CF5803411F08C34D1F420E040E261E0D0
:1002600084E66BDF20E040E262E084E666DFEC2FAC
:10027000EE0FFF0BE454F0474081518102E028E18A
:1002800061E08D2FACDFDF91CF910F91089502E0F7
:1002900028E14CE45FE861E08AE18D0FA0DFE7CF61
:1002A0008C2F6AE0A3D4C92FE82FEE0FFF0BE45484
:1002B000F0474081518102E028E161E08AE18D0F41
:1002C0008EDFEC2FEE0FFF0BE454F047408151819D
:1002D000D6CFEF92FF920F931F93CF93C82F162F75
:1002E000E42E3DDFEC2FF0E0EE0FFF1FE455F0476A
:1002F0004081518102E020E161E08AE570DF60E049
:1003000080E09EDFC0E0012F10E0F12C80914804D6
:1003100083FD14C080910F3F9091103F80930D3F5B
:1003200090930E3FC8018C0F911DB70180D4C82F48
:10033000682F80E085DF8CE291E024DF80910F3F21
:100340009091103F20910D3F30910E3F821B930BF7
:10035000813D9740D8F28C2FCF911F910F91FF9044
:10036000EF900895CF93C62F6091083F69DF6091A9
:10037000073F8C2FCF9164CF80910006882379F0BE
:100380008DE18093060681E08093080680910B063C
:1003900080FFFCCF8091100690911106089589EF9F
:1003A00092E80895A0E0B6E081E08C93E0EAF0E006
:1003B00081818D7F818312968C9112978F7C8065CD
:1003C00012968C9380E48083D7DFD6DF9C01990F4F
:1003D000440B550B64E27AE687E190E03BD4CA0116
:1003E000B90108950F93CF93DDDF653020E17207E7
:1003F0008105910524F064E070E180E090E06038D0
:100400002CE072078105910524F460E87CE080E02F
:1004100090E09B01AC0120583C4041095109A5E7FF
:10042000B0E056D424E833E040E050E035D4C22FA9
:1004300020EE4C2F63E08AE080DEC53108F0C4E195
:1004400020EA4C2F63E08AE078DE8091080401E026
:1004500028E044EB5FE884FF02C04CE75FE863E01C
:1004600080E0BDDE8C2FCF910F9108951F920F92E7
:100470000FB60F9211248F9381E0809353018091E6
:10048000063F8F5F8C3368F48093063F8091003F76
:10049000811101C088958F910F900FBE0F901F9012
:1004A00018951092063F8091073F8F5F8C3318F4A8
:1004B0008093073FEBCF1092073F8091083F8F5FFB
:1004C000883118F48093083FE1CF1092083FDECFC7
:1004D0001F920F920FB60F9211248F939F9381E07A
:1004E0008093460A80910F3F9091103F0196809330
:1004F0000F3F9093103F9F918F910F900FBE0F90E1
:100500001F9018951F920F920FB60F9211248F9380
:1005100081E080930B0A82E0809347048F910F90D3
:100520000FBE0F901F9018951F920F920FB60F924B
:1005300011248F939F938091490482FF0DC05A9A92
:100540009091033F80910A3F9817C0F58091033F37
:100550008F5F8093033F88958091490483FF0FC08C
:100560005B9A80915304887F809353041092000417
:100570001092053F1092023F81E08093013F8091ED
:10058000013F8823A1F080915204887F8093520418
:10059000809144048E7F8093440481E08093003FE7
:1005A0008093450A809150008E7F809350009F91E8
:1005B0008F910F900FBE0F901F90189581E0809340
:1005C000023F8093013FC8CF1F920F920FB60F9248
:1005D00011248F939F93EF93FF93E0E4F4E08289DB
:1005E000887F828B84E08BB980E183B981E080933E
:1005F000003F8093013F1092023F94819E7F94833D
:100600008093450AE0E5F0E080818E7F808388ED6D
:100610009AE084BF90930001FF91EF919F918F9199
:100620000F900FBE0F901F901895CF93DF93CDB70B
:10063000DEB72597CDBFDEBF28ED93E024BF9093B2
:100640006100E0E0F6E081E582838DE0858380E271
:10065000838381E08083109202028093030A3EEF3D
:100660003093260A3093270A39E03093000AE0E8F5
:10067000FAE04DEF51E046A757A742A753A730E84D
:100680003283118230E13083789410920004909389
:1006900020049093400498E0909352049093530464
:1006A0009093140490911404916090931404909189
:1006B00044049D7F9093440424BF80937C008091E8
:1006C00041018111FCCF80E88093400182E080935A
:1006D0004701809151018111FCCF81E78093500146
:1006E00081E08093520128E833E120934C0A309353
:1006F0004D0A8093400A8093450A80915000897F7B
:1007000084608093500088ED9AE084BF909300014C
:100710004CE3E42EF12C2090188D3090198D4090F0
:100720001A8D50901B8D8091013F882309F44AC097
:1007300039DE61387C40810591050CF443C010928C
:10074000013F1092033F20910D3F30910E3F809169
:100750000F3F9091103F821B930B883C9105B8F39B
:1007600082E0809322048091310488608093310478
:1007700081E080932204909130049860909330043B
:1007800010921608809313088093150804E81FE858
:10079000F80181918F01EFDC24EA3FE8201731074F
:1007A000B9F7DDDC88ED90E084BF909300011091F3
:1007B000023F112309F4FBC0113009F403C188EE94
:1007C00093E0E0DC80910B3F90910C3F009709F49F
:1007D00044C02091063F3091043F2317F1F120934C
:1007E000043F2091093F222309F4F6C020910F3FD6
:1007F0003091103F20930D3F30930E3FB70103D24D
:100800006F5F80E01DDD80910B3F90910C3F019761
:1008100080930B3F90930C3F892BB9F460E080E00C
:100820000FDD84E08093000420910D3F30910E3F56
:100830008091480483FF09C080910F3F9091103F41
:10084000821B930B80349F4198F38091000488238E
:1008500021F01092053F109200048CE291E092DCAE
:100860008D83882309F4C2C08091093F8111B1C1F1
:10087000B9DD882309F4ADC129823A824B825C82BA
:100880006EDC2CEAC22E2FE8D22ECE0101965C013E
:1008900034EB632E3FE8732E4C01F60141915191E8
:1008A0006F0102E020E161E0F50181915F0197DCD9
:1008B0006C147D0491F740910A3F440F440F20EFE0
:1008C00063E08AE03ADC10E08AEF90E05BDC8111C3
:1008D00003C02D81111117C020E04FE760E080E0D8
:1008E0002CDCF401E10FF11D17FDFA95808101E088
:1008F00028E044EA5FE860E08C5F71DC1F5F21E084
:1009000015300CF020E080910F3F9091103F409106
:100910000D3F50910E3F841B950B813D974008F48D
:1009200060C080910F3F9091103F80930D3F909356
:100930000E3F123009F4CEC00CF0B3C090E8D92EAF
:1009400000E6113009F04FC080910F3F9091103FA9
:1009500020910D3F30910E3F821B930B803D9740BD
:1009600008F041C08AEF90E00DDC811103C03D81A9
:100970003323D9F080910F3F9091103F80930D3F2A
:1009800090930E3F8091053F90E0019663E070E008
:100990004ED18093053F8091053F813009F494C08A
:1009A00008F48FC0823009F492C01D82CDCF81E857
:1009B000E2DB8FEFE0DB1092093F60E080E4D2DC05
:1009C00011DDFDCE81E8D7DB85E0D5DB1093093F53
:1009D00068E08CE4C7DCF3CE05DD60E080E4C2DCD7
:1009E00012CF211171CF81E08093013F80910F3FA1
:1009F0009091103F20910D3F30910E3F821B930B41
:100A0000813A9F4008F48FCE80910F3F9091103F24
:100A100080930D3F90930E3F81E8ADDB85E0ABDB2B
:100A200081E08093093F9BDB80910B3F90910C3FCD
:100A3000892B09F078CE8091080484FDD1C001E0B3
:100A400028E044EB5FE863E080E0C9DB80910804C4
:100A500084FF0FC0A7DC6D307D40810591054CF00F
:100A600080910A3F882329F080915204836080930B
:100A700052048091530481608093530410920006C5
:100A80001092003F8091450A8E7F8093450A81E055
:100A90008093460A80915000816080935000889531
:100AA00042CE133021F1143009F09DCF44E061E0D3
:100AB00083E00FDC982F990F990F890F80930A3FDD
:100AC00092CF1092000471CFD09200046ECF0093A9
:100AD00000046BCF42E365E081E0FBDB4CE3849FE5
:100AE000C001112480930B3F90930C3F7CCF8EE587
:100AF000D82E10E034DB01E028E044EA5FE860E053
:100B00008D2D6DDB6091063F80E0123039F06091F1
:100B1000083F8CE495DB6091073F88E191DB809191
:100B20000F3F9091103F20910D3F30910E3F821B5F
:100B3000930B8B3F9105E0F08091480483FD18C032
:100B400080910F3F9091103F80930D3F90930E3F07
:100B5000113049F1123091F18091083F90E00196F7
:100B600068E170E064D0682F8093083F8CE468DB14
:100B700080910F3F9091103F20910D3F30910E3F9B
:100B8000821B930B853C994050F280910F3F9091CE
:100B9000103F80930D3F90930E3FD6941F5F13300C
:100BA00009F0A8CF20CF8091073F90E00196B701D0
:100BB0003ED08093073F682F88E1D9CF8091063FD0
:100BC00090E00196B70133D08093063F682F80E014
:100BD000CECF81E8D0DA8FEFCEDA1092093F06CF80
:100BE0008091440481608093440430CF87FB082EB9
:100BF000062687FD819567FD619574D00EF4919569
:100C000007FC81950895AA1BBB1B51E107C0AA1FD1
:100C1000BB1FA617B70710F0A61BB70B881F991F9D
:100C20005A95A9F780959095BC01CD01089597FB41
:100C3000072E16F4009406D077FD08D0E4DF07FCF9
:100C400005D03EF4909581959F4F089570956195DC
:100C50007F4F0895A1E21A2EAA1BBB1BFD010DC0F8
:100C6000AA1FBB1FEE1FFF1FA217B307E407F5075C
:100C700020F0A21BB30BE40BF50B661F771F881F38
:100C8000991F1A9469F760957095809590959B01CE
:100C9000AC01BD01CF010895052E97FB16F4009419
:100CA0000FD057FD05D0D6DF07FC02D046F408C0B0
:100CB00050954095309521953F4F4F4F5F4F089588
:100CC00090958095709561957F4F8F4F9F4F0895B8
:100CD00015D0A59F900DB49F900DA49F800D911DE0
:100CE00011240895991B79E004C0991F961708F004
:100CF000961B881F7A95C9F780950895A29FB00129
:100D0000B39FC001A39F01D0B29F700D811D11241C
:080D1000911D0895F894FFCF36
:100D18006446280AE08080FE46565646FE02E2A255
:100D2800A2E202FE1F0707FFF7E6F7C4FF808A8AE0
:100D38008A8680FFF0F81C8E8783838383030307EA
:100D48000E1CF8F00F1F3871E1C1C1C1C3C7C6E05E
:100D580070381F0FFE4C8C0C0C1830A020B058AC0B
:100D68005CAC4CFE7F35323130190C04050C19325D
:100D7800353A357F00808018D8E0F0F6F6F0E0D8F4
:100D880018808000000101181B070F6F6F0F071BE9
:100D9800180101000000000000000000000000FE33
:100DA800FF0F0707070707070FFFFE000020E0E017
:100DB800E0E0E0E0E0E0F0FFFFF0E0E0E0E0E0E0CD
:100DC800F0FF7F0000FCFF0F0707070707070FFF6B
:100DD800FF0F0707070707070FFFFE00003FFFF099
:100DE800E0E0E0E0E0E0F0FFFFF0E0E0E0E0E0E09D
:100DF800F0FF7F000000000000000000000000007D
:100E0800000000000000000000FCFE000020E0E000
:100E1800E0E0E0E0E0E0E0E0E0E0E0E0E0E0E0E0CA
:100E2800F0FF7F0000FC0F070707070707070FFF02
:100E3800FF0F07070707070707070300003FF0E052
:100E4800E0E0E0E0E0E0F07F3F00000000000000AC
:100E58000000000000FCFF0000000000000000FE91
:100E6800FF0F0707070707070FFFFE00003FFFF008
:100E7800E0E0E0E0E0E0F07F3F000000000000007C
:100E880000FF7F000000000000000000000000FEDE
:100E9800FF0F070707070707070706000020E0E01E
:100EA800E0E0E0E0E0E0E0FFFFF0E0E0E0E0E0E0EC
:100EB800E0E0600000FCFF0000000000000000C04F
:100EC800C00000000000000000FFFE00003FFFF02F
:100ED800E0E0E0E0E0E0F0FFFFF0E0E0E0E0E0E0AC
:100EE800F0FF7F0000FCFF0F0707070707070FFE4B
:100EF800FC0000000000000000FFFE00003FFF00B3
:100F0800000000000000007FFFF0E0E0E0E0E0E02B
:100F1800F0FF7F000000000000000000000000005B
:100F28000000000000000000000000000020E0E0D9
:100F3800E0E0E0E0E0E0E0E0E0E0E0E0E0E0E0E0A9
:100F4800E0E0600000FCFF0F070707070707070737
:100F580007070707070707070FFFFE00003FFFF017
:100F6800E0E0E0E0E0E0E0E0E0E0E0E0E0E0E0E079
:100F7800F0FF7F0000F090909090F060AE2E20027D
:100F8800C822000321007F40818FA1A6A81FA4D3F7
:100F980000D5F0D922DA02DB208D14AF0003070F49
:100FA8001F0F07037C8D5C8D3C8D1C8D183870E0FD
:100FB800FC3870E04C8F1C8FEC8EBC8E8C8E5C8E57
:080FC8002C8EFC8DCC8D9C8D5C
:020FD00001011D
:00000001FF
